{
  "_format": "hh-sol-artifact-1",
  "contractName": "SVGie",
  "sourceName": "contracts/SVGie.sol",
  "abi": [
    {
      "inputs": [
        {
          "internalType": "uint256",
          "name": "mintPrice",
          "type": "uint256"
        }
      ],
      "stateMutability": "nonpayable",
      "type": "constructor"
    },
    {
      "inputs": [
        {
          "internalType": "address",
          "name": "addr",
          "type": "address"
        }
      ],
      "name": "AlreadyOwnsToken",
      "type": "error"
    },
    {
      "inputs": [
        {
          "internalType": "uint256",
          "name": "tokenId",
          "type": "uint256"
        }
      ],
      "name": "NonExistentTokenId",
      "type": "error"
    },
    {
      "inputs": [
        {
          "internalType": "uint256",
          "name": "tokenId",
          "type": "uint256"
        }
      ],
      "name": "NotOwnerOf",
      "type": "error"
    },
    {
      "inputs": [
        {
          "internalType": "address",
          "name": "addr",
          "type": "address"
        }
      ],
      "name": "OnERC721ReceivedNotOk",
      "type": "error"
    },
    {
      "inputs": [],
      "name": "OnlyOwner",
      "type": "error"
    },
    {
      "inputs": [],
      "name": "TransferAndApprovalsDisabled",
      "type": "error"
    },
    {
      "inputs": [],
      "name": "ZeroAddressQuery",
      "type": "error"
    },
    {
      "anonymous": false,
      "inputs": [
        {
          "indexed": true,
          "internalType": "address",
          "name": "_owner",
          "type": "address"
        },
        {
          "indexed": true,
          "internalType": "address",
          "name": "_approved",
          "type": "address"
        },
        {
          "indexed": true,
          "internalType": "uint256",
          "name": "_tokenId",
          "type": "uint256"
        }
      ],
      "name": "Approval",
      "type": "event"
    },
    {
      "anonymous": false,
      "inputs": [
        {
          "indexed": true,
          "internalType": "address",
          "name": "_owner",
          "type": "address"
        },
        {
          "indexed": true,
          "internalType": "address",
          "name": "_operator",
          "type": "address"
        },
        {
          "indexed": false,
          "internalType": "bool",
          "name": "_approved",
          "type": "bool"
        }
      ],
      "name": "ApprovalForAll",
      "type": "event"
    },
    {
      "anonymous": false,
      "inputs": [
        {
          "indexed": true,
          "internalType": "address",
          "name": "_from",
          "type": "address"
        },
        {
          "indexed": true,
          "internalType": "address",
          "name": "_to",
          "type": "address"
        },
        {
          "indexed": true,
          "internalType": "uint256",
          "name": "_tokenId",
          "type": "uint256"
        }
      ],
      "name": "Transfer",
      "type": "event"
    },
    {
      "inputs": [
        {
          "internalType": "address",
          "name": "",
          "type": "address"
        },
        {
          "internalType": "uint256",
          "name": "",
          "type": "uint256"
        }
      ],
      "name": "approve",
      "outputs": [],
      "stateMutability": "nonpayable",
      "type": "function"
    },
    {
      "inputs": [
        {
          "internalType": "address",
          "name": "_owner",
          "type": "address"
        }
      ],
      "name": "balanceOf",
      "outputs": [
        {
          "internalType": "uint256",
          "name": "",
          "type": "uint256"
        }
      ],
      "stateMutability": "view",
      "type": "function"
    },
    {
      "inputs": [
        {
          "internalType": "uint256",
          "name": "tokenId",
          "type": "uint256"
        }
      ],
      "name": "burn",
      "outputs": [],
      "stateMutability": "nonpayable",
      "type": "function"
    },
    {
      "inputs": [
        {
          "internalType": "uint256",
          "name": "_tokenId",
          "type": "uint256"
        }
      ],
      "name": "getApproved",
      "outputs": [
        {
          "internalType": "address",
          "name": "",
          "type": "address"
        }
      ],
      "stateMutability": "view",
      "type": "function"
    },
    {
      "inputs": [
        {
          "internalType": "address",
          "name": "",
          "type": "address"
        },
        {
          "internalType": "address",
          "name": "",
          "type": "address"
        }
      ],
      "name": "isApprovedForAll",
      "outputs": [
        {
          "internalType": "bool",
          "name": "",
          "type": "bool"
        }
      ],
      "stateMutability": "view",
      "type": "function"
    },
    {
      "inputs": [],
      "name": "mintActive",
      "outputs": [
        {
          "internalType": "bool",
          "name": "",
          "type": "bool"
        }
      ],
      "stateMutability": "view",
      "type": "function"
    },
    {
      "inputs": [],
      "name": "name",
      "outputs": [
        {
          "internalType": "string",
          "name": "",
          "type": "string"
        }
      ],
      "stateMutability": "view",
      "type": "function"
    },
    {
      "inputs": [],
      "name": "owner",
      "outputs": [
        {
          "internalType": "address",
          "name": "",
          "type": "address"
        }
      ],
      "stateMutability": "view",
      "type": "function"
    },
    {
      "inputs": [
        {
          "internalType": "uint256",
          "name": "_tokenId",
          "type": "uint256"
        }
      ],
      "name": "ownerOf",
      "outputs": [
        {
          "internalType": "address",
          "name": "",
          "type": "address"
        }
      ],
      "stateMutability": "view",
      "type": "function"
    },
    {
      "inputs": [],
      "name": "price",
      "outputs": [
        {
          "internalType": "uint256",
          "name": "",
          "type": "uint256"
        }
      ],
      "stateMutability": "view",
      "type": "function"
    },
    {
      "inputs": [
        {
          "internalType": "address",
          "name": "_to",
          "type": "address"
        }
      ],
      "name": "safeMint",
      "outputs": [],
      "stateMutability": "payable",
      "type": "function"
    },
    {
      "inputs": [
        {
          "internalType": "address",
          "name": "",
          "type": "address"
        },
        {
          "internalType": "address",
          "name": "",
          "type": "address"
        },
        {
          "internalType": "uint256",
          "name": "",
          "type": "uint256"
        }
      ],
      "name": "safeTransferFrom",
      "outputs": [],
      "stateMutability": "nonpayable",
      "type": "function"
    },
    {
      "inputs": [
        {
          "internalType": "address",
          "name": "",
          "type": "address"
        },
        {
          "internalType": "address",
          "name": "",
          "type": "address"
        },
        {
          "internalType": "uint256",
          "name": "",
          "type": "uint256"
        },
        {
          "internalType": "bytes",
          "name": "",
          "type": "bytes"
        }
      ],
      "name": "safeTransferFrom",
      "outputs": [],
      "stateMutability": "nonpayable",
      "type": "function"
    },
    {
      "inputs": [
        {
          "internalType": "address",
          "name": "",
          "type": "address"
        },
        {
          "internalType": "bool",
          "name": "",
          "type": "bool"
        }
      ],
      "name": "setApprovalForAll",
      "outputs": [],
      "stateMutability": "nonpayable",
      "type": "function"
    },
    {
      "inputs": [
        {
          "internalType": "address",
          "name": "newOwner",
          "type": "address"
        }
      ],
      "name": "setOwner",
      "outputs": [],
      "stateMutability": "nonpayable",
      "type": "function"
    },
    {
      "inputs": [
        {
          "internalType": "uint256",
          "name": "mintPrice",
          "type": "uint256"
        }
      ],
      "name": "setPrice",
      "outputs": [],
      "stateMutability": "nonpayable",
      "type": "function"
    },
    {
      "inputs": [
        {
          "internalType": "bytes4",
          "name": "interfaceId",
          "type": "bytes4"
        }
      ],
      "name": "supportsInterface",
      "outputs": [
        {
          "internalType": "bool",
          "name": "",
          "type": "bool"
        }
      ],
      "stateMutability": "view",
      "type": "function"
    },
    {
      "inputs": [],
      "name": "symbol",
      "outputs": [
        {
          "internalType": "string",
          "name": "",
          "type": "string"
        }
      ],
      "stateMutability": "view",
      "type": "function"
    },
    {
      "inputs": [
        {
          "internalType": "address",
          "name": "_to",
          "type": "address"
        }
      ],
      "name": "teamMint",
      "outputs": [],
      "stateMutability": "nonpayable",
      "type": "function"
    },
    {
      "inputs": [],
      "name": "toggleMintActive",
      "outputs": [],
      "stateMutability": "nonpayable",
      "type": "function"
    },
    {
      "inputs": [
        {
          "internalType": "uint256",
          "name": "tokenId",
          "type": "uint256"
        }
      ],
      "name": "tokenURI",
      "outputs": [
        {
          "internalType": "string",
          "name": "",
          "type": "string"
        }
      ],
      "stateMutability": "view",
      "type": "function"
    },
    {
      "inputs": [],
      "name": "totalSupply",
      "outputs": [
        {
          "internalType": "uint256",
          "name": "",
          "type": "uint256"
        }
      ],
      "stateMutability": "view",
      "type": "function"
    },
    {
      "inputs": [
        {
          "internalType": "address",
          "name": "",
          "type": "address"
        },
        {
          "internalType": "address",
          "name": "",
          "type": "address"
        },
        {
          "internalType": "uint256",
          "name": "",
          "type": "uint256"
        }
      ],
      "name": "transferFrom",
      "outputs": [],
      "stateMutability": "nonpayable",
      "type": "function"
    },
    {
      "inputs": [],
      "name": "withdraw",
      "outputs": [],
      "stateMutability": "nonpayable",
      "type": "function"
    }
  ],
  "bytecode": "0x60806040523480156200001157600080fd5b50604051620045793803806200457983398101604081905262000034916200014e565b604080518082018252600580825264535647696560d81b6020808401828152855180870190965292855284015281519192916200007491600091620000a8565b5080516200008a906001906020840190620000a8565b5050600380546001600160a01b0319163317905550600555620001a5565b828054620000b69062000168565b90600052602060002090601f016020900481019282620000da576000855562000125565b82601f10620000f557805160ff191683800117855562000125565b8280016001018555821562000125579182015b828111156200012557825182559160200191906001019062000108565b506200013392915062000137565b5090565b5b8082111562000133576000815560010162000138565b6000602082840312156200016157600080fd5b5051919050565b600181811c908216806200017d57607f821691505b602082108114156200019f57634e487b7160e01b600052602260045260246000fd5b50919050565b6143c480620001b56000396000f3fe60806040526004361061014b5760003560e01c80636352211e116100b6578063a22cb4651161006f578063a22cb46514610362578063b6a1dba11461037d578063b88d4fde1461039d578063c87b56dd146103b8578063d02c2bf2146103d8578063e985e9c5146103ed57600080fd5b80636352211e146102b757806370a08231146102d75780638da5cb5b146102f757806391b7f5ed1461031757806395d89b4114610337578063a035b1fe1461034c57600080fd5b806323b872dd1161010857806323b872dd1461023a57806325fd90f3146102555780633ccfd60b1461026f57806340d097c31461028457806342842e0e1461023a57806342966c681461029757600080fd5b806301ffc9a71461015057806306fdde0314610185578063081812fc146101a7578063095ea7b3146101d457806313af4035146101f657806318160ddd14610216575b600080fd5b34801561015c57600080fd5b5061017061016b3660046136be565b610410565b60405190151581526020015b60405180910390f35b34801561019157600080fd5b5061019a610462565b60405161017c919061373e565b3480156101b357600080fd5b506101c76101c2366004613751565b6104f4565b60405161017c919061376a565b3480156101e057600080fd5b506101f46101ef36600461379a565b61052c565b005b34801561020257600080fd5b506101f46102113660046137c4565b610545565b34801561022257600080fd5b5061022c60045481565b60405190815260200161017c565b34801561024657600080fd5b506101f46101ef3660046137df565b34801561026157600080fd5b506006546101709060ff1681565b34801561027b57600080fd5b506101f4610592565b6101f46102923660046137c4565b610668565b3480156102a357600080fd5b506101f46102b2366004613751565b610726565b3480156102c357600080fd5b506101c76102d2366004613751565b610781565b3480156102e357600080fd5b5061022c6102f23660046137c4565b6107b0565b34801561030357600080fd5b506003546101c7906001600160a01b031681565b34801561032357600080fd5b506101f4610332366004613751565b610802565b34801561034357600080fd5b5061019a610832565b34801561035857600080fd5b5061022c60055481565b34801561036e57600080fd5b506101f46101ef36600461381b565b34801561038957600080fd5b506101f46103983660046137c4565b610841565b3480156103a957600080fd5b506101f46101ef36600461386d565b3480156103c457600080fd5b5061019a6103d3366004613751565b61086c565b3480156103e457600080fd5b506101f46108dc565b3480156103f957600080fd5b50610170610408366004613949565b600092915050565b60006001600160e01b031982166380ac58cd60e01b148061044157506001600160e01b03198216635b5e139f60e01b145b8061045c57506301ffc9a760e01b6001600160e01b03198316145b92915050565b6060600080546104719061397c565b80601f016020809104026020016040519081016040528092919081815260200182805461049d9061397c565b80156104ea5780601f106104bf576101008083540402835291602001916104ea565b820191906000526020600020905b8154815290600101906020018083116104cd57829003601f168201915b5050505050905090565b60006104ff8261092c565b610524576040516304b61e5560e11b8152600481018390526024015b60405180910390fd5b506000919050565b604051639b83917760e01b815260040160405180910390fd5b6003546001600160a01b0316331461057057604051635fc483c560e01b815260040160405180910390fd5b600380546001600160a01b0319166001600160a01b0392909216919091179055565b47806105cf5760405162461bcd60e51b815260206004820152600c60248201526b042616c616e636520697320360a41b604482015260640161051b565b6003546040516000916001600160a01b03169083908381818185875af1925050503d806000811461061c576040519150601f19603f3d011682016040523d82523d6000602084013e610621565b606091505b50509050806106645760405162461bcd60e51b815260206004820152600f60248201526e15da5d1a191c985dc819985a5b1959608a1b604482015260640161051b565b5050565b60065460ff166106af5760405162461bcd60e51b81526020600482015260126024820152714d696e74206973206e6f742061637469766560701b604482015260640161051b565b6005543410156106fb5760405162461bcd60e51b815260206004820152601760248201527656616c75652073656e74203c204d696e7420507269636560481b604482015260640161051b565b6004805490600061070b836139cd565b919050555061072381826001600160a01b0316610963565b50565b61072f81610781565b6001600160a01b0316336001600160a01b03161461076357604051636525b60f60e11b81526004810182905260240161051b565b60048054906000610773836139e8565b91905055506107238161096c565b600061078c8261092c565b6107ac576040516304b61e5560e11b81526004810183905260240161051b565b5090565b60006001600160a01b0382166107d95760405163331715f760e11b815260040160405180910390fd5b6001600160a01b03821660009081526002602052604090205460ff161561052457506001919050565b6003546001600160a01b0316331461082d57604051635fc483c560e01b815260040160405180910390fd5b600555565b6060600180546104719061397c565b6003546001600160a01b031633146106fb57604051635fc483c560e01b815260040160405180910390fd5b60606108778261092c565b6108c35760405162461bcd60e51b815260206004820152601b60248201527f53564769653a204e6f6e204578697374656e7420546f6b656e49640000000000604482015260640161051b565b61045c826108cf610462565b6108d7610832565b6109e1565b6003546001600160a01b0316331461090757604051635fc483c560e01b815260040160405180910390fd5b60065460ff16610920576006805460ff19166001179055565b6006805460ff19169055565b60006001600160a01b03821661094457506000919050565b506001600160a01b031660009081526002602052604090205460ff1690565b61066482610b56565b6109758161092c565b610995576040516304b61e5560e11b81526004810182905260240161051b565b6001600160a01b038116600081815260026020526040808220805460ff191690555133907fddf252ad1be2c89b69c2b068fc378daa952ba7f163c4a11628f55a4df523b3ef908390a450565b60606109eb61362c565b60408051808201825260098152683d913730b6b2911d1160b91b602080830191909152908352828101869052815180830183526002815261202360f01b9181019190915290820152610a3c85610c4a565b606082015260408051808201909152600c81526b11161139bcb6b137b6111d1160a11b602082015281600460200201528281600560200201819052506040518060800160405280605081526020016143096050913960c0820152610aa7610aa286610db2565b611136565b60e0820152604080518082019091526002815261227d60f01b6020820152816008602090810291909101919091528151828201516040808501516060860151608087015160a088015160c089015160e08a01516101008b0151965160009a610b129a99989101613a15565b6040516020818303038152906040529050610b2c81611136565b604051602001610b3c9190613ad6565b604051602081830303815290604052925050509392505050565b6001600160a01b038116610b7d5760405163331715f760e11b815260040160405180910390fd5b6001600160a01b03811660009081526002602052604090205460ff1615610bb95780604051634eef53e360e11b815260040161051b919061376a565b6001600160a01b038116600081815260026020526040808220805460ff19166001179055518291907fddf252ad1be2c89b69c2b068fc378daa952ba7f163c4a11628f55a4df523b3ef908290a4610c2b600082836001600160a01b03166040518060200160405280600081525061129c565b610723578060405163e2cff75560e01b815260040161051b919061376a565b60408051602a8082526060828101909352600091906020820181803683370190505090506000839050600360fc1b82600081518110610c8b57610c8b6139ff565b60200101906001600160f81b031916908160001a905350600f60fb1b82600181518110610cba57610cba6139ff565b60200101906001600160f81b031916908160001a905350600080516020614220833981519152600f821660108110610cf457610cf46139ff565b1a60f81b82602981518110610d0b57610d0b6139ff565b60200101906001600160f81b031916908160001a90535060285b6001811115610da9576004826001600160a01b0316901c915060008051602061422083398151915282600f166001600160a01b031660108110610d6a57610d6a6139ff565b1a60f81b838281518110610d8057610d806139ff565b60200101906001600160f81b031916908160001a90535080610da1816139e8565b915050610d25565b50909392505050565b60606000610dbf8361139d565b8051602080830151604051939450600093610ddb939201613b1b565b60408051808303601f19018152828252908401516060850151919350600092610e0992908290602001613b4a565b60408051808303601f19018152828252606086015191860151909350600092610e389291908290602001613b4a565b60405160208183030381529060405290506000610e548761219b565b905060006040518060a001604052806069815260200161424060699139604080518082019091526015815274223e3c73746f702073746f702d636f6c6f723d222360581b6020820152869088600060200201516040518060600160405280602781526020016142e2602791398a600160200201516040518060e0016040528060b7815260200161410660b791398b6040518060400160405280601e81526020017f29223e3c2f726563743e3c6c696e6561724772616469656e742069643d220000815250604051602001610f3099989796959493929190613a15565b60408051601f198184030181528282019091526015825274223e3c73746f702073746f702d636f6c6f723d222360581b602083015291508190859088600260200201516040518060600160405280602781526020016142e2602791398a600360200201516040518060600160405280602881526020016140de602891398c600260200201516040518060600160405280603981526020016142a960399139604051602001610fe699989796959493929190613a15565b60408051601f198184030181528282019091526015825274223e3c73746f702073746f702d636f6c6f723d222360581b602083015291508190849088600360200201516040518060600160405280602781526020016142e2602791398a600260200201516040518060600160405280602881526020016140de602891398c600360200201516040518060600160405280603681526020016143596036913960405160200161109c99989796959493929190613a15565b60408051601f19818403018152606083019091526023808352909250829186916141bd60208301396040805180820182526006815265149110321e9160d11b60208083019190915282518084018452600f81526e111f1e17b830ba341f1e17b9bb339f60891b81830152925161111a969594938a93928a9201613b8d565b60408051601f1981840301815291905298975050505050505050565b606081516000141561115657505060408051602081019091526000815290565b60006040518060600160405280604081526020016141e060409139905060006003845160026111859190613c1f565b61118f9190613c4d565b61119a906004613c61565b905060006111a9826020613c1f565b67ffffffffffffffff8111156111c1576111c1613857565b6040519080825280601f01601f1916602001820160405280156111eb576020820181803683370190505b509050818152600183018586518101602084015b81831015611257576003830192508251603f8160121c168501518253600182019150603f81600c1c168501518253600182019150603f8160061c168501518253600182019150603f81168501518253506001016111ff565b60038951066001811461127157600281146112825761128e565b613d3d60f01b60011983015261128e565b603d60f81b6000198301525b509398975050505050505050565b60006001600160a01b0384163b6112b557506001611395565b604051630a85bd0160e11b81526001600160a01b0385169063150b7a02906112e7903390899088908890600401613c80565b6020604051808303816000875af1925050508015611322575060408051601f3d908101601f1916820190925261131f91810190613cbd565b60015b61137f573d808015611350576040519150601f19603f3d011682016040523d82523d6000602084013e611355565b606091505b508051611377578460405163e2cff75560e01b815260040161051b919061376a565b805181602001fd5b6001600160e01b031916630a85bd0160e11b1490505b949350505050565b6113a5613654565b6040516bffffffffffffffffffffffff19606084901b1660208201526000906034016040516020818303038152906040528051906020012060001c90506113ea613654565b60408051600880825281830190925260009160208201818036833750505060809390931c92905063ffffffff8316600061040061142c60ff8716610100613cda565b6114369190613d06565b6114419060bf613d29565b9050600080516020614220833981519152600f821660108110611466576114666139ff565b1a60f81b8360078151811061147d5761147d6139ff565b60200101906001600160f81b031916908160001a90535060048163ffffffff16901c905060008051602061422083398151915281600f1663ffffffff16601081106114ca576114ca6139ff565b1a60f81b836006815181106114e1576114e16139ff565b60200101906001600160f81b031916908160001a90535060088263ffffffff16901c915060008051602061422083398151915282600f1663ffffffff166010811061152e5761152e6139ff565b1a60f81b83600581518110611545576115456139ff565b60200101906001600160f81b031916908160001a90535060048263ffffffff16901c915060008051602061422083398151915282600f1663ffffffff1660108110611592576115926139ff565b1a60f81b836004815181106115a9576115a96139ff565b60200101906001600160f81b031916908160001a90535060048263ffffffff16901c915060008051602061422083398151915282600f1663ffffffff16601081106115f6576115f66139ff565b1a60f81b8360038151811061160d5761160d6139ff565b60200101906001600160f81b031916908160001a90535060048263ffffffff16901c915060008051602061422083398151915282600f1663ffffffff166010811061165a5761165a6139ff565b1a60f81b83600281518110611671576116716139ff565b60200101906001600160f81b031916908160001a90535060048263ffffffff16901c915060008051602061422083398151915282600f1663ffffffff16601081106116be576116be6139ff565b1a60f81b836001815181106116d5576116d56139ff565b60200101906001600160f81b031916908160001a90535060048263ffffffff16901c915060008051602061422083398151915282600f1663ffffffff1660108110611722576117226139ff565b1a60f81b83600081518110611739576117396139ff565b60200101906001600160f81b031916908160001a905350606084018390526040805160088082528183019092529060208201818036833750505060209590951c94925063ffffffff8516915061040061179760ff8716610100613cda565b6117a19190613d06565b6117ac9060bf613d29565b9050600080516020614220833981519152600f8216601081106117d1576117d16139ff565b1a60f81b836007815181106117e8576117e86139ff565b60200101906001600160f81b031916908160001a90535060048163ffffffff16901c905060008051602061422083398151915281600f1663ffffffff1660108110611835576118356139ff565b1a60f81b8360068151811061184c5761184c6139ff565b60200101906001600160f81b031916908160001a90535060088263ffffffff16901c915060008051602061422083398151915282600f1663ffffffff1660108110611899576118996139ff565b1a60f81b836005815181106118b0576118b06139ff565b60200101906001600160f81b031916908160001a90535060048263ffffffff16901c915060008051602061422083398151915282600f1663ffffffff16601081106118fd576118fd6139ff565b1a60f81b83600481518110611914576119146139ff565b60200101906001600160f81b031916908160001a90535060048263ffffffff16901c915060008051602061422083398151915282600f1663ffffffff1660108110611961576119616139ff565b1a60f81b83600381518110611978576119786139ff565b60200101906001600160f81b031916908160001a90535060048263ffffffff16901c915060008051602061422083398151915282600f1663ffffffff16601081106119c5576119c56139ff565b1a60f81b836002815181106119dc576119dc6139ff565b60200101906001600160f81b031916908160001a90535060048263ffffffff16901c915060008051602061422083398151915282600f1663ffffffff1660108110611a2957611a296139ff565b1a60f81b83600181518110611a4057611a406139ff565b60200101906001600160f81b031916908160001a90535060048263ffffffff16901c915060008051602061422083398151915282600f1663ffffffff1660108110611a8d57611a8d6139ff565b1a60f81b83600081518110611aa457611aa46139ff565b60200101906001600160f81b031916908160001a9053506040808501849052805160088082528183019092529060208201818036833750505060209590951c94925063ffffffff85169150610400611b0160ff8716610100613cda565b611b0b9190613d06565b611b169060bf613d29565b9050600080516020614220833981519152600f821660108110611b3b57611b3b6139ff565b1a60f81b83600781518110611b5257611b526139ff565b60200101906001600160f81b031916908160001a90535060048163ffffffff16901c905060008051602061422083398151915281600f1663ffffffff1660108110611b9f57611b9f6139ff565b1a60f81b83600681518110611bb657611bb66139ff565b60200101906001600160f81b031916908160001a90535060088263ffffffff16901c915060008051602061422083398151915282600f1663ffffffff1660108110611c0357611c036139ff565b1a60f81b83600581518110611c1a57611c1a6139ff565b60200101906001600160f81b031916908160001a90535060048263ffffffff16901c915060008051602061422083398151915282600f1663ffffffff1660108110611c6757611c676139ff565b1a60f81b83600481518110611c7e57611c7e6139ff565b60200101906001600160f81b031916908160001a90535060048263ffffffff16901c915060008051602061422083398151915282600f1663ffffffff1660108110611ccb57611ccb6139ff565b1a60f81b83600381518110611ce257611ce26139ff565b60200101906001600160f81b031916908160001a90535060048263ffffffff16901c915060008051602061422083398151915282600f1663ffffffff1660108110611d2f57611d2f6139ff565b1a60f81b83600281518110611d4657611d466139ff565b60200101906001600160f81b031916908160001a90535060048263ffffffff16901c915060008051602061422083398151915282600f1663ffffffff1660108110611d9357611d936139ff565b1a60f81b83600181518110611daa57611daa6139ff565b60200101906001600160f81b031916908160001a90535060048263ffffffff16901c915060008051602061422083398151915282600f1663ffffffff1660108110611df757611df76139ff565b1a60f81b83600081518110611e0e57611e0e6139ff565b60200101906001600160f81b031916908160001a905350602084018390526040805160088082528183019092529060208201818036833750505060209590951c94925063ffffffff85169150610400611e6c60ff8716610100613cda565b611e769190613d06565b611e819060bf613d29565b9050600080516020614220833981519152600f821660108110611ea657611ea66139ff565b1a60f81b83600781518110611ebd57611ebd6139ff565b60200101906001600160f81b031916908160001a90535060048163ffffffff16901c905060008051602061422083398151915281600f1663ffffffff1660108110611f0a57611f0a6139ff565b1a60f81b83600681518110611f2157611f216139ff565b60200101906001600160f81b031916908160001a90535060088263ffffffff16901c915060008051602061422083398151915282600f1663ffffffff1660108110611f6e57611f6e6139ff565b1a60f81b83600581518110611f8557611f856139ff565b60200101906001600160f81b031916908160001a90535060048263ffffffff16901c915060008051602061422083398151915282600f1663ffffffff1660108110611fd257611fd26139ff565b1a60f81b83600481518110611fe957611fe96139ff565b60200101906001600160f81b031916908160001a90535060048263ffffffff16901c915060008051602061422083398151915282600f1663ffffffff1660108110612036576120366139ff565b1a60f81b8360038151811061204d5761204d6139ff565b60200101906001600160f81b031916908160001a90535060048263ffffffff16901c915060008051602061422083398151915282600f1663ffffffff166010811061209a5761209a6139ff565b1a60f81b836002815181106120b1576120b16139ff565b60200101906001600160f81b031916908160001a90535060048263ffffffff16901c915060008051602061422083398151915282600f1663ffffffff16601081106120fe576120fe6139ff565b1a60f81b83600181518110612115576121156139ff565b60200101906001600160f81b031916908160001a90535060048263ffffffff16901c915060008051602061422083398151915282600f1663ffffffff1660108110612162576121626139ff565b1a60f81b83600081518110612179576121796139ff565b60200101906001600160f81b031916908160001a905350505081529392505050565b60606121a561366e565b8260285b60ff81161561220e576121c0600f83166010613d48565b836121cc600184613d6a565b60ff16602881106121df576121df6139ff565b60ff929092166020909202015260049190911c60016001609c1b0316908061220681613d8d565b9150506121a9565b5060408051610660810182526002610620820181815261018160f51b61064084015282528251808401845281815261018960f51b602082810191909152808401919091528351808501855282815261019160f51b81830152838501528351808501855282815261019960f51b818301526060840152835180850185528281526101a160f51b818301526080840152835180850185528281526101a960f51b8183015260a0840152835180850185528281526101b160f51b8183015260c0840152835180850185528281526101b960f51b8183015260e0840152835180850185528281526101c160f51b81830152610100840152835180850185529182526101c960f51b828201526101208301919091528251808401845260038082526201898160ed1b82840152610140840191909152835180850185528181526201898960ed1b81840152610160840152835180850185528181526201899160ed1b81840152610180840152835180850185528181526201899960ed1b818401526101a084015283518085018552818152620189a160ed1b818401526101c084015283518085018552818152620189a960ed1b818401526101e084015283518085018552818152620189b160ed1b8184015261020084015283518085018552818152620189b960ed1b8184015261022084015283518085018552818152620189c160ed1b8184015261024084015283518085018552818152620189c960ed1b81840152610260840152835180850185528181526201918160ed1b81840152610280840152835180850185528181526201918960ed1b818401526102a0840152835180850185528181526201919160ed1b818401526102c0840152835180850185528181526201919960ed1b818401526102e084015283518085018552818152620191a160ed1b8184015261030084015283518085018552818152620191a960ed1b8184015261032084015283518085018552818152620191b160ed1b8184015261034084015283518085018552818152620191b960ed1b8184015261036084015283518085018552818152620191c160ed1b8184015261038084015283518085018552818152620191c960ed1b818401526103a0840152835180850185528181526201998160ed1b818401526103c0840152835180850185528181526201998960ed1b818401526103e0840152835180850185528181526201999160ed1b81840152610400840152835180850185528181526201999960ed1b8184015261042084015283518085018552818152620199a160ed1b8184015261044084015283518085018552818152620199a960ed1b8184015261046084015283518085018552818152620199b160ed1b8184015261048084015283518085018552818152620199b960ed1b818401526104a084015283518085018552818152620199c160ed1b818401526104c084015283518085018552818152620199c960ed1b818401526104e0840152835180850185528181526201a18160ed1b81840152610500840152835180850185528181526201a18960ed1b81840152610520840152835180850185528181526201a19160ed1b81840152610540840152835180850185528181526201a19960ed1b81840152610560840152835180850185528181526201a1a160ed1b81840152610580840152835180850185528181526201a1a960ed1b818401526105a0840152835180850185528181526201a1b160ed1b818401526105c0840152835180850185528181526201a1b960ed1b818401526105e0840152835180850190945283526201a1c160ed1b9083015261060081019190915261274b61368d565b8351829060ff1660318110612762576127626139ff565b602002015182856001602002015160ff1660318110612783576127836139ff565b60200201516040860151849060ff16603181106127a2576127a26139ff565b60200201516060870151859060ff16603181106127c1576127c16139ff565b60200201516080880151869060ff16603181106127e0576127e06139ff565b602002015160a0890151879060ff16603181106127ff576127ff6139ff565b602002015160c08a0151889060ff166031811061281e5761281e6139ff565b602002015160e08b0151899060ff166031811061283d5761283d6139ff565b6020020151604051602001612859989796959493929190613daa565b60408051808303601f190181529190528152610100840151829060ff1660318110612886576128866139ff565b6020020151610120850151839060ff16603181106128a6576128a66139ff565b6020020151610140860151849060ff16603181106128c6576128c66139ff565b6020020151610160870151859060ff16603181106128e6576128e66139ff565b6020020151610180880151869060ff1660318110612906576129066139ff565b60200201516101a0890151879060ff1660318110612926576129266139ff565b60200201516101c08a0151889060ff1660318110612946576129466139ff565b60200201516101e08b0151899060ff1660318110612966576129666139ff565b6020020151604051602001612982989796959493929190613e7a565b60408051808303601f190181529190526020820152610200840151829060ff16603181106129b2576129b26139ff565b6020020151610220850151839060ff16603181106129d2576129d26139ff565b6020020151610240860151849060ff16603181106129f2576129f26139ff565b6020020151610260870151859060ff1660318110612a1257612a126139ff565b6020020151610280880151869060ff1660318110612a3257612a326139ff565b60200201516102a0890151879060ff1660318110612a5257612a526139ff565b60200201516102c08a0151889060ff1660318110612a7257612a726139ff565b60200201516102e08b0151899060ff1660318110612a9257612a926139ff565b6020020151604051602001612aae989796959493929190613e7a565b60408051808303601f19018152918152820152610300840151829060ff1660318110612adc57612adc6139ff565b6020020151610320850151839060ff1660318110612afc57612afc6139ff565b6020020151610340860151849060ff1660318110612b1c57612b1c6139ff565b6020020151610360870151859060ff1660318110612b3c57612b3c6139ff565b6020020151610380880151869060ff1660318110612b5c57612b5c6139ff565b60200201516103a0890151879060ff1660318110612b7c57612b7c6139ff565b60200201516103c08a0151889060ff1660318110612b9c57612b9c6139ff565b60200201516103e08b0151899060ff1660318110612bbc57612bbc6139ff565b6020020151604051602001612bd8989796959493929190613e7a565b60408051601f198184030181529190526060820152610400840151829060ff1660318110612c0857612c086139ff565b6020020151610420850151839060ff1660318110612c2857612c286139ff565b6020020151610440860151849060ff1660318110612c4857612c486139ff565b6020020151610460870151859060ff1660318110612c6857612c686139ff565b6020020151610480880151869060ff1660318110612c8857612c886139ff565b60200201516104a0890151879060ff1660318110612ca857612ca86139ff565b60200201516104c08a0151889060ff1660318110612cc857612cc86139ff565b60200201516104e08b0151899060ff1660318110612ce857612ce86139ff565b6020020151604051602001612d04989796959493929190613e7a565b60408051808303601f1901815291905260808201526104808401516104c0850151839190612d33906002613f4d565b612d3d9190613d6a565b60ff1660318110612d5057612d506139ff565b60200201516104a08501516104e0860151849190612d6f906002613f4d565b612d799190613d6a565b60ff1660318110612d8c57612d8c6139ff565b60200201518551849060ff1660318110612da857612da86139ff565b602002015184876001602002015160ff1660318110612dc957612dc96139ff565b6020020151604051602001612de19493929190613f76565b60408051808303601f1901815291905260a082015283518290612e05906030613d6a565b60ff1660318110612e1857612e186139ff565b602002015182856001602002015160ff1660318110612e3957612e396139ff565b602002015160408601518490612e50906030613d6a565b60ff1660318110612e6357612e636139ff565b60200201516060870151859060ff1660318110612e8257612e826139ff565b602002015160808801518690612e99906030613d6a565b60ff1660318110612eac57612eac6139ff565b602002015160a0890151879060ff1660318110612ecb57612ecb6139ff565b602002015160c08a01518890612ee2906030613d6a565b60ff1660318110612ef557612ef56139ff565b602002015160e08b0151899060ff1660318110612f1457612f146139ff565b6020020151604051602001612f30989796959493929190613daa565b60408051808303601f1901815291905260c08201526101008401518290612f58906030613d6a565b60ff1660318110612f6b57612f6b6139ff565b6020020151610120850151839060ff1660318110612f8b57612f8b6139ff565b60200201516101408601518490612fa3906030613d6a565b60ff1660318110612fb657612fb66139ff565b6020020151610160870151859060ff1660318110612fd657612fd66139ff565b60200201516101808801518690612fee906030613d6a565b60ff1660318110613001576130016139ff565b60200201516101a0890151879060ff1660318110613021576130216139ff565b60200201516101c08a01518890613039906030613d6a565b60ff166031811061304c5761304c6139ff565b60200201516101e08b0151899060ff166031811061306c5761306c6139ff565b6020020151604051602001613088989796959493929190613e7a565b60408051808303601f1901815291905260e082015261020084015182906130b0906030613d6a565b60ff16603181106130c3576130c36139ff565b6020020151610220850151839060ff16603181106130e3576130e36139ff565b602002015161024086015184906130fb906030613d6a565b60ff166031811061310e5761310e6139ff565b6020020151610260870151859060ff166031811061312e5761312e6139ff565b60200201516102808801518690613146906030613d6a565b60ff1660318110613159576131596139ff565b60200201516102a0890151879060ff1660318110613179576131796139ff565b60200201516102c08a01518890613191906030613d6a565b60ff16603181106131a4576131a46139ff565b60200201516102e08b0151899060ff16603181106131c4576131c46139ff565b60200201516040516020016131e0989796959493929190613e7a565b60408051808303601f190181529190526101008201526103008401518290613209906030613d6a565b60ff166031811061321c5761321c6139ff565b6020020151610320850151839060ff166031811061323c5761323c6139ff565b60200201516103408601518490613254906030613d6a565b60ff1660318110613267576132676139ff565b6020020151610360870151859060ff1660318110613287576132876139ff565b6020020151610380880151869061329f906030613d6a565b60ff16603181106132b2576132b26139ff565b60200201516103a0890151879060ff16603181106132d2576132d26139ff565b60200201516103c08a015188906132ea906030613d6a565b60ff16603181106132fd576132fd6139ff565b60200201516103e08b0151899060ff166031811061331d5761331d6139ff565b6020020151604051602001613339989796959493929190613e7a565b60408051601f198184030181529190526101208201526104008401518290613362906030613d6a565b60ff1660318110613375576133756139ff565b6020020151610420850151839060ff1660318110613395576133956139ff565b602002015161044086015184906133ad906030613d6a565b60ff16603181106133c0576133c06139ff565b6020020151610460870151859060ff16603181106133e0576133e06139ff565b602002015161048088015186906133f8906030613d6a565b60ff166031811061340b5761340b6139ff565b60200201516104a0890151879060ff166031811061342b5761342b6139ff565b60200201516104c08a01518890613443906030613d6a565b60ff1660318110613456576134566139ff565b60200201516104e08b0151899060ff1660318110613476576134766139ff565b6020020151604051602001613492989796959493929190613e7a565b60408051808303601f190181529190526101408201526104808401516104c08501518391906134c2906002613f4d565b6134cc9190613d6a565b6134d7906030613d6a565b60ff16603181106134ea576134ea6139ff565b60200201516104a08501516104e0860151849190613509906002613f4d565b6135139190613d6a565b60ff1660318110613526576135266139ff565b60200201518551849061353a906030613d6a565b60ff166031811061354d5761354d6139ff565b602002015184876001602002015160ff166031811061356e5761356e6139ff565b60200201516040516020016135869493929190613fe3565b60408051808303601f190181529181526101608301919091528151602080840151848401516060860151608087015160a088015160c089015197516000986135d19897909101613b8d565b60408051808303601f190181529082905260e08401516101008501516101208601516101408701516101608801519496506136119587959060200161405e565b60408051601f19818403018152919052979650505050505050565b6040518061012001604052806009905b606081526020019060019003908161363c5790505090565b60408051608081019091526060815260036020820161363c565b6040518061050001604052806028906020820280368337509192915050565b60408051610180810190915260608152600b6020820161363c565b6001600160e01b03198116811461072357600080fd5b6000602082840312156136d057600080fd5b81356136db816136a8565b9392505050565b60005b838110156136fd5781810151838201526020016136e5565b8381111561370c576000848401525b50505050565b6000815180845261372a8160208601602086016136e2565b601f01601f19169290920160200192915050565b6020815260006136db6020830184613712565b60006020828403121561376357600080fd5b5035919050565b6001600160a01b0391909116815260200190565b80356001600160a01b038116811461379557600080fd5b919050565b600080604083850312156137ad57600080fd5b6137b68361377e565b946020939093013593505050565b6000602082840312156137d657600080fd5b6136db8261377e565b6000806000606084860312156137f457600080fd5b6137fd8461377e565b925061380b6020850161377e565b9150604084013590509250925092565b6000806040838503121561382e57600080fd5b6138378361377e565b91506020830135801515811461384c57600080fd5b809150509250929050565b634e487b7160e01b600052604160045260246000fd5b6000806000806080858703121561388357600080fd5b61388c8561377e565b935061389a6020860161377e565b925060408501359150606085013567ffffffffffffffff808211156138be57600080fd5b818701915087601f8301126138d257600080fd5b8135818111156138e4576138e4613857565b604051601f8201601f19908116603f0116810190838211818310171561390c5761390c613857565b816040528281528a602084870101111561392557600080fd5b82602086016020830137600060208483010152809550505050505092959194509250565b6000806040838503121561395c57600080fd5b6139658361377e565b91506139736020840161377e565b90509250929050565b600181811c9082168061399057607f821691505b602082108114156139b157634e487b7160e01b600052602260045260246000fd5b50919050565b634e487b7160e01b600052601160045260246000fd5b60006000198214156139e1576139e16139b7565b5060010190565b6000816139f7576139f76139b7565b506000190190565b634e487b7160e01b600052603260045260246000fd5b60008a51613a27818460208f016136e2565b8a51613a398183860160208f016136e2565b8a519184010190613a4e818360208e016136e2565b8951613a608183850160208e016136e2565b8951929091010190613a76818360208c016136e2565b8751613a888183850160208c016136e2565b8751929091010190613a9e818360208a016136e2565b8551613ab08183850160208a016136e2565b8551929091010190613ac68183602088016136e2565b019b9a5050505050505050505050565b7f646174613a6170706c69636174696f6e2f6a736f6e3b6261736536342c000000815260008251613b0e81601d8501602087016136e2565b91909101601d0192915050565b60008351613b2d8184602088016136e2565b835190830190613b418183602088016136e2565b01949350505050565b60008451613b5c8184602089016136e2565b845190830190613b708183602089016136e2565b8451910190613b838183602088016136e2565b0195945050505050565b600088516020613ba08285838e016136e2565b895191840191613bb38184848e016136e2565b8951920191613bc58184848d016136e2565b8851920191613bd78184848c016136e2565b8751920191613be98184848b016136e2565b8651920191613bfb8184848a016136e2565b8551920191613c0d81848489016136e2565b919091019a9950505050505050505050565b60008219821115613c3257613c326139b7565b500190565b634e487b7160e01b600052601260045260246000fd5b600082613c5c57613c5c613c37565b500490565b6000816000190483118215151615613c7b57613c7b6139b7565b500290565b6001600160a01b0385811682528416602082015260408101839052608060608201819052600090613cb390830184613712565b9695505050505050565b600060208284031215613ccf57600080fd5b81516136db816136a8565b600063ffffffff80831681851681830481118215151615613cfd57613cfd6139b7565b02949350505050565b600063ffffffff80841680613d1d57613d1d613c37565b92169190910492915050565b600063ffffffff808316818516808303821115613b4157613b416139b7565b60006001600160a01b03828116848216808303821115613b4157613b416139b7565b600060ff821660ff841680821015613d8457613d846139b7565b90039392505050565b600060ff821680613da057613da06139b7565b6000190192915050565b604d60f81b8152600089516020613dc78260018601838f016136e2565b8a5191840191613ddd8160018501848f016136e2565b808301925050604360f81b600183015260028a51613e0081838601858f016136e2565b8a51930192613e1481838601858e016136e2565b8951930192613e2881838601858d016136e2565b8851930192613e3c81838601858c016136e2565b8751930192613e5081838601858b016136e2565b8651930192613e6481838601858a016136e2565b929092019091019b9a5050505050505050505050565b605360f81b8152600089516020613e978260018601838f016136e2565b8a5191840191613ead8160018501848f016136e2565b8a51920191613ec28160018501848e016136e2565b8951920191613ed78160018501848d016136e2565b605360f81b600193909101928301528751613ef88160028501848c016136e2565b8751920191613f0d8160028501848b016136e2565b8651920191613f228160028501848a016136e2565b8551920191613f3781600285018489016136e2565b919091016002019b9a5050505050505050505050565b600060ff821660ff84168160ff0481118215151615613f6e57613f6e6139b7565b029392505050565b605160f81b815260008551613f92816001850160208a016136e2565b855190830190613fa9816001840160208a016136e2565b8551910190613fbf8160018401602089016136e2565b8451910190613fd58160018401602088016136e2565b016001019695505050505050565b605160f81b815260008551613fff816001850160208a016136e2565b855190830190614016816001840160208a016136e2565b855191019061402c8160018401602089016136e2565b84519101906140428160018401602088016136e2565b603d60f91b600192909101918201526002019695505050505050565b6000875160206140718285838d016136e2565b8851918401916140848184848d016136e2565b88519201916140968184848c016136e2565b87519201916140a88184848b016136e2565b86519201916140ba8184848a016136e2565b85519201916140cc81848489016136e2565b91909101999850505050505050505056fe22206f66667365743d222e35223e3c2f73746f703e3c73746f702073746f702d636f6c6f723d222322206f66667365743d2231223e3c2f73746f703e3c2f72616469616c4772616469656e743e3c7265637420783d22382220793d2238222077696474683d223130302522206865696768743d223130302522206f7061636974793d2231222066696c6c3d227768697465223e3c2f726563743e3c7265637420783d22382220793d2238222077696474683d223130302522206865696768743d223130302522206f7061636974793d222e35222066696c6c3d2275726c28232922207374726f6b652d77696474683d22302e3122207374726f6b653d2275726c28234142434445464748494a4b4c4d4e4f505152535455565758595a6162636465666768696a6b6c6d6e6f707172737475767778797a303132333435363738392b2f30313233343536373839616263646566000000000000000000000000000000003c73766720786d6c6e733d22687474703a2f2f7777772e77332e6f72672f323030302f737667222076696577426f783d22382038203332203332222077696474683d2233303022206865696768743d22333030223e3c72616469616c4772616469656e742069643d2222206f66667365743d2231223e3c2f73746f703e3c2f6c696e6561724772616469656e743e3c6c696e6561724772616469656e742069643d2222206f66667365743d2230223e3c2f73746f703e3c73746f702073746f702d636f6c6f723d2223222c226465736372697074696f6e223a2257616c6c65742053564720526570726573656e746174696f6e222c22696d616765223a2022646174613a696d6167652f7376672b786d6c3b6261736536342c22206f66667365743d2231223e3c2f73746f703e3c2f6c696e6561724772616469656e743e3c706174682066696c6c3d2275726c2823a2646970667358221220ac9f070bb6ae86db10b8e40bc71f905cd636497316811093eb7b31b34796edbe64736f6c634300080c0033",
  "linkReferences": {},
  "deployedLinkReferences": {}
}