{
  "_format": "hh-sol-artifact-1",
  "contractName": "SVGie",
  "sourceName": "contracts/SVGie.sol",
  "abi": [
    {
      "inputs": [
        {
          "internalType": "uint256",
          "name": "mintPrice",
          "type": "uint256"
        }
      ],
      "stateMutability": "nonpayable",
      "type": "constructor"
    },
    {
      "inputs": [
        {
          "internalType": "address",
          "name": "addr",
          "type": "address"
        }
      ],
      "name": "AlreadyOwnsToken",
      "type": "error"
    },
    {
      "inputs": [
        {
          "internalType": "uint256",
          "name": "tokenId",
          "type": "uint256"
        }
      ],
      "name": "NonExistentTokenId",
      "type": "error"
    },
    {
      "inputs": [
        {
          "internalType": "uint256",
          "name": "tokenId",
          "type": "uint256"
        }
      ],
      "name": "NotOwnerOf",
      "type": "error"
    },
    {
      "inputs": [
        {
          "internalType": "address",
          "name": "addr",
          "type": "address"
        }
      ],
      "name": "OnERC721ReceivedNotOk",
      "type": "error"
    },
    {
      "inputs": [],
      "name": "OnlyOwner",
      "type": "error"
    },
    {
      "inputs": [],
      "name": "TransferAndApprovalsDisabled",
      "type": "error"
    },
    {
      "inputs": [],
      "name": "ZeroAddressQuery",
      "type": "error"
    },
    {
      "anonymous": false,
      "inputs": [
        {
          "indexed": true,
          "internalType": "address",
          "name": "_owner",
          "type": "address"
        },
        {
          "indexed": true,
          "internalType": "address",
          "name": "_approved",
          "type": "address"
        },
        {
          "indexed": true,
          "internalType": "uint256",
          "name": "_tokenId",
          "type": "uint256"
        }
      ],
      "name": "Approval",
      "type": "event"
    },
    {
      "anonymous": false,
      "inputs": [
        {
          "indexed": true,
          "internalType": "address",
          "name": "_owner",
          "type": "address"
        },
        {
          "indexed": true,
          "internalType": "address",
          "name": "_operator",
          "type": "address"
        },
        {
          "indexed": false,
          "internalType": "bool",
          "name": "_approved",
          "type": "bool"
        }
      ],
      "name": "ApprovalForAll",
      "type": "event"
    },
    {
      "anonymous": false,
      "inputs": [
        {
          "indexed": true,
          "internalType": "address",
          "name": "_from",
          "type": "address"
        },
        {
          "indexed": true,
          "internalType": "address",
          "name": "_to",
          "type": "address"
        },
        {
          "indexed": true,
          "internalType": "uint256",
          "name": "_tokenId",
          "type": "uint256"
        }
      ],
      "name": "Transfer",
      "type": "event"
    },
    {
      "inputs": [
        {
          "internalType": "address",
          "name": "",
          "type": "address"
        },
        {
          "internalType": "uint256",
          "name": "",
          "type": "uint256"
        }
      ],
      "name": "approve",
      "outputs": [],
      "stateMutability": "nonpayable",
      "type": "function"
    },
    {
      "inputs": [
        {
          "internalType": "address",
          "name": "_owner",
          "type": "address"
        }
      ],
      "name": "balanceOf",
      "outputs": [
        {
          "internalType": "uint256",
          "name": "",
          "type": "uint256"
        }
      ],
      "stateMutability": "view",
      "type": "function"
    },
    {
      "inputs": [
        {
          "internalType": "uint256",
          "name": "tokenId",
          "type": "uint256"
        }
      ],
      "name": "burn",
      "outputs": [],
      "stateMutability": "nonpayable",
      "type": "function"
    },
    {
      "inputs": [
        {
          "internalType": "uint256",
          "name": "_tokenId",
          "type": "uint256"
        }
      ],
      "name": "getApproved",
      "outputs": [
        {
          "internalType": "address",
          "name": "",
          "type": "address"
        }
      ],
      "stateMutability": "view",
      "type": "function"
    },
    {
      "inputs": [],
      "name": "getDonationAddress",
      "outputs": [
        {
          "internalType": "address",
          "name": "",
          "type": "address"
        }
      ],
      "stateMutability": "view",
      "type": "function"
    },
    {
      "inputs": [],
      "name": "getNextPrice",
      "outputs": [
        {
          "internalType": "uint256",
          "name": "",
          "type": "uint256"
        }
      ],
      "stateMutability": "view",
      "type": "function"
    },
    {
      "inputs": [],
      "name": "getOwner",
      "outputs": [
        {
          "internalType": "address",
          "name": "",
          "type": "address"
        }
      ],
      "stateMutability": "view",
      "type": "function"
    },
    {
      "inputs": [],
      "name": "getPrice",
      "outputs": [
        {
          "internalType": "uint256",
          "name": "",
          "type": "uint256"
        }
      ],
      "stateMutability": "view",
      "type": "function"
    },
    {
      "inputs": [],
      "name": "getSlowFactor",
      "outputs": [
        {
          "internalType": "uint256",
          "name": "",
          "type": "uint256"
        }
      ],
      "stateMutability": "view",
      "type": "function"
    },
    {
      "inputs": [],
      "name": "getTotalSupply",
      "outputs": [
        {
          "internalType": "uint256",
          "name": "",
          "type": "uint256"
        }
      ],
      "stateMutability": "view",
      "type": "function"
    },
    {
      "inputs": [
        {
          "internalType": "address",
          "name": "",
          "type": "address"
        },
        {
          "internalType": "address",
          "name": "",
          "type": "address"
        }
      ],
      "name": "isApprovedForAll",
      "outputs": [
        {
          "internalType": "bool",
          "name": "",
          "type": "bool"
        }
      ],
      "stateMutability": "view",
      "type": "function"
    },
    {
      "inputs": [],
      "name": "isMintActive",
      "outputs": [
        {
          "internalType": "bool",
          "name": "",
          "type": "bool"
        }
      ],
      "stateMutability": "view",
      "type": "function"
    },
    {
      "inputs": [],
      "name": "name",
      "outputs": [
        {
          "internalType": "string",
          "name": "",
          "type": "string"
        }
      ],
      "stateMutability": "view",
      "type": "function"
    },
    {
      "inputs": [
        {
          "internalType": "uint256",
          "name": "_tokenId",
          "type": "uint256"
        }
      ],
      "name": "ownerOf",
      "outputs": [
        {
          "internalType": "address",
          "name": "",
          "type": "address"
        }
      ],
      "stateMutability": "view",
      "type": "function"
    },
    {
      "inputs": [
        {
          "internalType": "address",
          "name": "_to",
          "type": "address"
        }
      ],
      "name": "safeMint",
      "outputs": [],
      "stateMutability": "payable",
      "type": "function"
    },
    {
      "inputs": [
        {
          "internalType": "address",
          "name": "",
          "type": "address"
        },
        {
          "internalType": "address",
          "name": "",
          "type": "address"
        },
        {
          "internalType": "uint256",
          "name": "",
          "type": "uint256"
        }
      ],
      "name": "safeTransferFrom",
      "outputs": [],
      "stateMutability": "nonpayable",
      "type": "function"
    },
    {
      "inputs": [
        {
          "internalType": "address",
          "name": "",
          "type": "address"
        },
        {
          "internalType": "address",
          "name": "",
          "type": "address"
        },
        {
          "internalType": "uint256",
          "name": "",
          "type": "uint256"
        },
        {
          "internalType": "bytes",
          "name": "",
          "type": "bytes"
        }
      ],
      "name": "safeTransferFrom",
      "outputs": [],
      "stateMutability": "nonpayable",
      "type": "function"
    },
    {
      "inputs": [
        {
          "internalType": "address",
          "name": "",
          "type": "address"
        },
        {
          "internalType": "bool",
          "name": "",
          "type": "bool"
        }
      ],
      "name": "setApprovalForAll",
      "outputs": [],
      "stateMutability": "nonpayable",
      "type": "function"
    },
    {
      "inputs": [
        {
          "internalType": "address",
          "name": "newDonationAddress",
          "type": "address"
        }
      ],
      "name": "setDonationAddress",
      "outputs": [],
      "stateMutability": "nonpayable",
      "type": "function"
    },
    {
      "inputs": [
        {
          "internalType": "uint256",
          "name": "mintPrice",
          "type": "uint256"
        }
      ],
      "name": "setNextPrice",
      "outputs": [],
      "stateMutability": "nonpayable",
      "type": "function"
    },
    {
      "inputs": [
        {
          "internalType": "address",
          "name": "newOwner",
          "type": "address"
        }
      ],
      "name": "setOwner",
      "outputs": [],
      "stateMutability": "nonpayable",
      "type": "function"
    },
    {
      "inputs": [
        {
          "internalType": "uint256",
          "name": "mintPrice",
          "type": "uint256"
        }
      ],
      "name": "setPrice",
      "outputs": [],
      "stateMutability": "nonpayable",
      "type": "function"
    },
    {
      "inputs": [
        {
          "internalType": "uint256",
          "name": "factor",
          "type": "uint256"
        }
      ],
      "name": "setSlowFactor",
      "outputs": [],
      "stateMutability": "nonpayable",
      "type": "function"
    },
    {
      "inputs": [
        {
          "internalType": "bytes4",
          "name": "interfaceId",
          "type": "bytes4"
        }
      ],
      "name": "supportsInterface",
      "outputs": [
        {
          "internalType": "bool",
          "name": "",
          "type": "bool"
        }
      ],
      "stateMutability": "view",
      "type": "function"
    },
    {
      "inputs": [],
      "name": "symbol",
      "outputs": [
        {
          "internalType": "string",
          "name": "",
          "type": "string"
        }
      ],
      "stateMutability": "view",
      "type": "function"
    },
    {
      "inputs": [
        {
          "internalType": "address",
          "name": "_to",
          "type": "address"
        }
      ],
      "name": "teamMint",
      "outputs": [],
      "stateMutability": "nonpayable",
      "type": "function"
    },
    {
      "inputs": [],
      "name": "toggleMintActive",
      "outputs": [],
      "stateMutability": "nonpayable",
      "type": "function"
    },
    {
      "inputs": [
        {
          "internalType": "uint256",
          "name": "tokenId",
          "type": "uint256"
        }
      ],
      "name": "tokenURI",
      "outputs": [
        {
          "internalType": "string",
          "name": "",
          "type": "string"
        }
      ],
      "stateMutability": "view",
      "type": "function"
    },
    {
      "inputs": [
        {
          "internalType": "address",
          "name": "",
          "type": "address"
        },
        {
          "internalType": "address",
          "name": "",
          "type": "address"
        },
        {
          "internalType": "uint256",
          "name": "",
          "type": "uint256"
        }
      ],
      "name": "transferFrom",
      "outputs": [],
      "stateMutability": "nonpayable",
      "type": "function"
    },
    {
      "inputs": [],
      "name": "withdraw",
      "outputs": [],
      "stateMutability": "nonpayable",
      "type": "function"
    }
  ],
  "bytecode": "0x60806040523480156200001157600080fd5b50604051620047c1380380620047c183398101604081905262000034916200014d565b60408051808201825260048082526315195cdd60e21b6020808401828152855180870190965292855284015281519192916200007391600091620000a7565b50805162000089906001906020840190620000a7565b5050600380546001600160a01b0319163317905550600755620001a4565b828054620000b59062000167565b90600052602060002090601f016020900481019282620000d9576000855562000124565b82601f10620000f457805160ff191683800117855562000124565b8280016001018555821562000124579182015b828111156200012457825182559160200191906001019062000107565b506200013292915062000136565b5090565b5b8082111562000132576000815560010162000137565b6000602082840312156200016057600080fd5b5051919050565b600181811c908216806200017c57607f821691505b602082108114156200019e57634e487b7160e01b600052602260045260246000fd5b50919050565b61460d80620001b46000396000f3fe60806040526004361061015d5760003560e01c806301ffc9a71461016257806306fdde0314610197578063081812fc146101b9578063095ea7b3146101e657806313af40351461020857806323037a851461022857806323b872dd146102485780633ccfd60b1461026357806340d097c31461027857806342842e0e1461024857806342966c681461028b57806354c03ab7146102ab5780635b92ac0d146102c95780636352211e146102e1578063681ce98a146103015780636d909a9a146103205780636f48e79b1461034057806370a0823114610360578063893d20e81461038057806391b7f5ed1461039e57806395d89b41146103be57806398d5fdca146103d3578063a22cb465146103e8578063b6a1dba114610403578063b88d4fde14610423578063c4e41b221461043e578063c51f729b14610453578063c87b56dd14610468578063d02c2bf214610488578063e985e9c51461049d575b600080fd5b34801561016e57600080fd5b5061018261017d3660046138e8565b6104c0565b60405190151581526020015b60405180910390f35b3480156101a357600080fd5b506101ac610512565b60405161018e9190613968565b3480156101c557600080fd5b506101d96101d436600461397b565b6105a4565b60405161018e9190613994565b3480156101f257600080fd5b506102066102013660046139c4565b6105dc565b005b34801561021457600080fd5b506102066102233660046139ee565b6105f5565b34801561023457600080fd5b5061020661024336600461397b565b610642565b34801561025457600080fd5b50610206610201366004613a09565b34801561026f57600080fd5b50610206610672565b6102066102863660046139ee565b6107db565b34801561029757600080fd5b506102066102a636600461397b565b6108e8565b3480156102b757600080fd5b506004546001600160a01b03166101d9565b3480156102d557600080fd5b5060095460ff16610182565b3480156102ed57600080fd5b506101d96102fc36600461397b565b610943565b34801561030d57600080fd5b506007545b60405190815260200161018e565b34801561032c57600080fd5b5061020661033b36600461397b565b610972565b34801561034c57600080fd5b5061020661035b3660046139ee565b6109a2565b34801561036c57600080fd5b5061031261037b3660046139ee565b6109ef565b34801561038c57600080fd5b506003546001600160a01b03166101d9565b3480156103aa57600080fd5b506102066103b936600461397b565b610a41565b3480156103ca57600080fd5b506101ac610a71565b3480156103df57600080fd5b50600654610312565b3480156103f457600080fd5b50610206610201366004613a45565b34801561040f57600080fd5b5061020661041e3660046139ee565b610a80565b34801561042f57600080fd5b50610206610201366004613a97565b34801561044a57600080fd5b50600554610312565b34801561045f57600080fd5b50600854610312565b34801561047457600080fd5b506101ac61048336600461397b565b610ad3565b34801561049457600080fd5b50610206610b41565b3480156104a957600080fd5b506101826104b8366004613b72565b600092915050565b60006001600160e01b031982166380ac58cd60e01b14806104f157506001600160e01b03198216635b5e139f60e01b145b8061050c57506301ffc9a760e01b6001600160e01b03198316145b92915050565b60606000805461052190613ba5565b80601f016020809104026020016040519081016040528092919081815260200182805461054d90613ba5565b801561059a5780601f1061056f5761010080835404028352916020019161059a565b820191906000526020600020905b81548152906001019060200180831161057d57829003601f168201915b5050505050905090565b60006105af82610b80565b6105d4576040516304b61e5560e11b8152600481018390526024015b60405180910390fd5b506000919050565b604051639b83917760e01b815260040160405180910390fd5b6003546001600160a01b0316331461062057604051635fc483c560e01b815260040160405180910390fd5b600380546001600160a01b0319166001600160a01b0392909216919091179055565b6003546001600160a01b0316331461066d57604051635fc483c560e01b815260040160405180910390fd5b600755565b476000816106b15760405162461bcd60e51b815260206004820152600c60248201526b042616c616e636520697320360a41b60448201526064016105cb565b6004546001600160a01b0316610761576003546040516001600160a01b039091169083905b60006040518083038185875af1925050503d8060008114610713576040519150601f19603f3d011682016040523d82523d6000602084013e610718565b606091505b5050809150508061075d5760405162461bcd60e51b815260206004820152600f60248201526e15da5d1a191c985dc819985a5b1959608a1b60448201526064016105cb565b5050565b61076c600283613c0c565b6004546040519193506001600160a01b0316908390600081818185875af1925050503d80600081146107ba576040519150601f19603f3d011682016040523d82523d6000602084013e6107bf565b606091505b50506003546040519192506001600160a01b03169047906106d6565b60095460ff166108225760405162461bcd60e51b81526020600482015260126024820152714d696e74206973206e6f742061637469766560701b60448201526064016105cb565b60065434101561086e5760405162461bcd60e51b815260206004820152601760248201527656616c75652073656e74203c204d696e7420507269636560481b60448201526064016105cb565b60085460075461087e9190613c20565b60056000815461088d90613c3f565b91829055506108a490670de0b6b3a7640000613c20565b106108d2576000600654905060075460068190555080600760008282546108cb9190613c5a565b9091555050505b6108e581826001600160a01b0316610bb7565b50565b6108f181610943565b6001600160a01b0316336001600160a01b03161461092557604051636525b60f60e11b8152600481018290526024016105cb565b6005805490600061093583613c72565b91905055506108e581610bc0565b600061094e82610b80565b61096e576040516304b61e5560e11b8152600481018390526024016105cb565b5090565b6003546001600160a01b0316331461099d57604051635fc483c560e01b815260040160405180910390fd5b600855565b6003546001600160a01b031633146109cd57604051635fc483c560e01b815260040160405180910390fd5b600480546001600160a01b0319166001600160a01b0392909216919091179055565b60006001600160a01b038216610a185760405163331715f760e11b815260040160405180910390fd5b6001600160a01b03821660009081526002602052604090205460ff16156105d457506001919050565b6003546001600160a01b03163314610a6c57604051635fc483c560e01b815260040160405180910390fd5b600655565b60606001805461052190613ba5565b6003546001600160a01b03163314610aab57604051635fc483c560e01b815260040160405180910390fd5b60058054906000610abb83613c3f565b91905055506108e581826001600160a01b0316610bb7565b6060610ade82610b80565b610b285760405162461bcd60e51b815260206004820152601b60248201527a14d591da594e88139bdb88115e1a5cdd195b9d08151bdad95b9259602a1b60448201526064016105cb565b61050c82610b34610512565b610b3c610a71565b610c23565b6003546001600160a01b03163314610b6c57604051635fc483c560e01b815260040160405180910390fd5b6009805460ff19811660ff90911615179055565b60006001600160a01b038216610b9857506000919050565b506001600160a01b031660009081526002602052604090205460ff1690565b61075d82610d98565b610bc981610b80565b610be9576040516304b61e5560e11b8152600481018290526024016105cb565b6001600160a01b038116600081815260026020526040808220805460ff191690555133906000805160206144d2833981519152908390a450565b6060610c2d613856565b60408051808201825260098152683d913730b6b2911d1160b91b602080830191909152908352828101869052815180830183526002815261202360f01b9181019190915290820152610c7e85610e7a565b606082015260408051808201909152600c81526b11161139bcb6b137b6111d1160a11b602082015281600460200201528281600560200201819052506040518060800160405280605081526020016145526050913960c0820152610ce9610ce486610fe2565b611366565b60e0820152604080518082019091526002815261227d60f01b6020820152816008602090810291909101919091528151828201516040808501516060860151608087015160a088015160c089015160e08a01516101008b0151965160009a610d549a99989101613c9f565b6040516020818303038152906040529050610d6e81611366565b604051602001610d7e9190613d60565b604051602081830303815290604052925050509392505050565b6001600160a01b038116610dbf5760405163331715f760e11b815260040160405180910390fd5b6001600160a01b03811660009081526002602052604090205460ff1615610dfb5780604051634eef53e360e11b81526004016105cb9190613994565b6001600160a01b038116600081815260026020526040808220805460ff19166001179055518291906000805160206144d2833981519152908290a4610e5b600082836001600160a01b0316604051806020016040528060008152506114cb565b6108e5578060405163e2cff75560e01b81526004016105cb9190613994565b60408051602a8082526060828101909352600091906020820181803683370190505090506000839050600360fc1b82600081518110610ebb57610ebb613c89565b60200101906001600160f81b031916908160001a905350600f60fb1b82600181518110610eea57610eea613c89565b60200101906001600160f81b031916908160001a9053506000805160206144b2833981519152600f821660108110610f2457610f24613c89565b1a60f81b82602981518110610f3b57610f3b613c89565b60200101906001600160f81b031916908160001a90535060285b6001811115610fd9576004826001600160a01b0316901c91506000805160206144b283398151915282600f166001600160a01b031660108110610f9a57610f9a613c89565b1a60f81b838281518110610fb057610fb0613c89565b60200101906001600160f81b031916908160001a90535080610fd181613c72565b915050610f55565b50909392505050565b60606000610fef836115cc565b805160208083015160405193945060009361100b939201613da5565b60408051808303601f1901815282825290840151606085015191935060009261103992908290602001613dd4565b60408051808303601f190181528282526060860151918601519093506000926110689291908290602001613dd4565b60405160208183030381529060405290506000611084876123c5565b905060006040518060a001604052806069815260200161430760699139604080518082019091526015815274223e3c73746f702073746f702d636f6c6f723d222360581b60208201528690886000602002015160405180606001604052806027815260200161452b602791398a600160200201516040518060e0016040528060b7815260200161439860b791398b6040518060400160405280601e81526020017f29223e3c2f726563743e3c6c696e6561724772616469656e742069643d22000081525060405160200161116099989796959493929190613c9f565b60408051601f198184030181528282019091526015825274223e3c73746f702073746f702d636f6c6f723d222360581b6020830152915081908590886002602002015160405180606001604052806027815260200161452b602791398a60036020020151604051806060016040528060288152602001614370602891398c600260200201516040518060600160405280603981526020016144f26039913960405160200161121699989796959493929190613c9f565b60408051601f198184030181528282019091526015825274223e3c73746f702073746f702d636f6c6f723d222360581b6020830152915081908490886003602002015160405180606001604052806027815260200161452b602791398a60026020020151604051806060016040528060288152602001614370602891398c600360200201516040518060600160405280603681526020016145a2603691396040516020016112cc99989796959493929190613c9f565b60408051601f198184030181526060830190915260238083529092508291869161444f60208301396040805180820182526006815265149110321e9160d11b60208083019190915282518084018452600f81526e111f1e17b830ba341f1e17b9bb339f60891b81830152925161134a969594938a93928a9201613e17565b60408051601f1981840301815291905298975050505050505050565b606081516000141561138657505060408051602081019091526000815290565b600060405180606001604052806040815260200161447260409139905060006003845160026113b59190613c5a565b6113bf9190613c0c565b6113ca906004613c20565b905060006113d9826020613c5a565b6001600160401b038111156113f0576113f0613a81565b6040519080825280601f01601f19166020018201604052801561141a576020820181803683370190505b509050818152600183018586518101602084015b81831015611486576003830192508251603f8160121c168501518253600182019150603f81600c1c168501518253600182019150603f8160061c168501518253600182019150603f811685015182535060010161142e565b6003895106600181146114a057600281146114b1576114bd565b613d3d60f01b6001198301526114bd565b603d60f81b6000198301525b509398975050505050505050565b60006001600160a01b0384163b6114e4575060016115c4565b604051630a85bd0160e11b81526001600160a01b0385169063150b7a0290611516903390899088908890600401613ea9565b6020604051808303816000875af1925050508015611551575060408051601f3d908101601f1916820190925261154e91810190613ee6565b60015b6115ae573d80801561157f576040519150601f19603f3d011682016040523d82523d6000602084013e611584565b606091505b5080516115a6578460405163e2cff75560e01b81526004016105cb9190613994565b805181602001fd5b6001600160e01b031916630a85bd0160e11b1490505b949350505050565b6115d461387e565b6040516001600160601b0319606084901b1660208201526000906034016040516020818303038152906040528051906020012060001c905061161461387e565b60408051600880825281830190925260009160208201818036833750505060809390931c92905063ffffffff8316600061040061165660ff8716610100613f03565b6116609190613f2f565b61166b9060bf613f52565b90506000805160206144b2833981519152600f82166010811061169057611690613c89565b1a60f81b836007815181106116a7576116a7613c89565b60200101906001600160f81b031916908160001a90535060048163ffffffff16901c90506000805160206144b283398151915281600f1663ffffffff16601081106116f4576116f4613c89565b1a60f81b8360068151811061170b5761170b613c89565b60200101906001600160f81b031916908160001a90535060088263ffffffff16901c91506000805160206144b283398151915282600f1663ffffffff166010811061175857611758613c89565b1a60f81b8360058151811061176f5761176f613c89565b60200101906001600160f81b031916908160001a90535060048263ffffffff16901c91506000805160206144b283398151915282600f1663ffffffff16601081106117bc576117bc613c89565b1a60f81b836004815181106117d3576117d3613c89565b60200101906001600160f81b031916908160001a90535060048263ffffffff16901c91506000805160206144b283398151915282600f1663ffffffff166010811061182057611820613c89565b1a60f81b8360038151811061183757611837613c89565b60200101906001600160f81b031916908160001a90535060048263ffffffff16901c91506000805160206144b283398151915282600f1663ffffffff166010811061188457611884613c89565b1a60f81b8360028151811061189b5761189b613c89565b60200101906001600160f81b031916908160001a90535060048263ffffffff16901c91506000805160206144b283398151915282600f1663ffffffff16601081106118e8576118e8613c89565b1a60f81b836001815181106118ff576118ff613c89565b60200101906001600160f81b031916908160001a90535060048263ffffffff16901c91506000805160206144b283398151915282600f1663ffffffff166010811061194c5761194c613c89565b1a60f81b8360008151811061196357611963613c89565b60200101906001600160f81b031916908160001a905350606084018390526040805160088082528183019092529060208201818036833750505060209590951c94925063ffffffff851691506104006119c160ff8716610100613f03565b6119cb9190613f2f565b6119d69060bf613f52565b90506000805160206144b2833981519152600f8216601081106119fb576119fb613c89565b1a60f81b83600781518110611a1257611a12613c89565b60200101906001600160f81b031916908160001a90535060048163ffffffff16901c90506000805160206144b283398151915281600f1663ffffffff1660108110611a5f57611a5f613c89565b1a60f81b83600681518110611a7657611a76613c89565b60200101906001600160f81b031916908160001a90535060088263ffffffff16901c91506000805160206144b283398151915282600f1663ffffffff1660108110611ac357611ac3613c89565b1a60f81b83600581518110611ada57611ada613c89565b60200101906001600160f81b031916908160001a90535060048263ffffffff16901c91506000805160206144b283398151915282600f1663ffffffff1660108110611b2757611b27613c89565b1a60f81b83600481518110611b3e57611b3e613c89565b60200101906001600160f81b031916908160001a90535060048263ffffffff16901c91506000805160206144b283398151915282600f1663ffffffff1660108110611b8b57611b8b613c89565b1a60f81b83600381518110611ba257611ba2613c89565b60200101906001600160f81b031916908160001a90535060048263ffffffff16901c91506000805160206144b283398151915282600f1663ffffffff1660108110611bef57611bef613c89565b1a60f81b83600281518110611c0657611c06613c89565b60200101906001600160f81b031916908160001a90535060048263ffffffff16901c91506000805160206144b283398151915282600f1663ffffffff1660108110611c5357611c53613c89565b1a60f81b83600181518110611c6a57611c6a613c89565b60200101906001600160f81b031916908160001a90535060048263ffffffff16901c91506000805160206144b283398151915282600f1663ffffffff1660108110611cb757611cb7613c89565b1a60f81b83600081518110611cce57611cce613c89565b60200101906001600160f81b031916908160001a9053506040808501849052805160088082528183019092529060208201818036833750505060209590951c94925063ffffffff85169150610400611d2b60ff8716610100613f03565b611d359190613f2f565b611d409060bf613f52565b90506000805160206144b2833981519152600f821660108110611d6557611d65613c89565b1a60f81b83600781518110611d7c57611d7c613c89565b60200101906001600160f81b031916908160001a90535060048163ffffffff16901c90506000805160206144b283398151915281600f1663ffffffff1660108110611dc957611dc9613c89565b1a60f81b83600681518110611de057611de0613c89565b60200101906001600160f81b031916908160001a90535060088263ffffffff16901c91506000805160206144b283398151915282600f1663ffffffff1660108110611e2d57611e2d613c89565b1a60f81b83600581518110611e4457611e44613c89565b60200101906001600160f81b031916908160001a90535060048263ffffffff16901c91506000805160206144b283398151915282600f1663ffffffff1660108110611e9157611e91613c89565b1a60f81b83600481518110611ea857611ea8613c89565b60200101906001600160f81b031916908160001a90535060048263ffffffff16901c91506000805160206144b283398151915282600f1663ffffffff1660108110611ef557611ef5613c89565b1a60f81b83600381518110611f0c57611f0c613c89565b60200101906001600160f81b031916908160001a90535060048263ffffffff16901c91506000805160206144b283398151915282600f1663ffffffff1660108110611f5957611f59613c89565b1a60f81b83600281518110611f7057611f70613c89565b60200101906001600160f81b031916908160001a90535060048263ffffffff16901c91506000805160206144b283398151915282600f1663ffffffff1660108110611fbd57611fbd613c89565b1a60f81b83600181518110611fd457611fd4613c89565b60200101906001600160f81b031916908160001a90535060048263ffffffff16901c91506000805160206144b283398151915282600f1663ffffffff166010811061202157612021613c89565b1a60f81b8360008151811061203857612038613c89565b60200101906001600160f81b031916908160001a905350602084018390526040805160088082528183019092529060208201818036833750505060209590951c94925063ffffffff8516915061040061209660ff8716610100613f03565b6120a09190613f2f565b6120ab9060bf613f52565b90506000805160206144b2833981519152600f8216601081106120d0576120d0613c89565b1a60f81b836007815181106120e7576120e7613c89565b60200101906001600160f81b031916908160001a90535060048163ffffffff16901c90506000805160206144b283398151915281600f1663ffffffff166010811061213457612134613c89565b1a60f81b8360068151811061214b5761214b613c89565b60200101906001600160f81b031916908160001a90535060088263ffffffff16901c91506000805160206144b283398151915282600f1663ffffffff166010811061219857612198613c89565b1a60f81b836005815181106121af576121af613c89565b60200101906001600160f81b031916908160001a90535060048263ffffffff16901c91506000805160206144b283398151915282600f1663ffffffff16601081106121fc576121fc613c89565b1a60f81b8360048151811061221357612213613c89565b60200101906001600160f81b031916908160001a90535060048263ffffffff16901c91506000805160206144b283398151915282600f1663ffffffff166010811061226057612260613c89565b1a60f81b8360038151811061227757612277613c89565b60200101906001600160f81b031916908160001a90535060048263ffffffff16901c91506000805160206144b283398151915282600f1663ffffffff16601081106122c4576122c4613c89565b1a60f81b836002815181106122db576122db613c89565b60200101906001600160f81b031916908160001a90535060048263ffffffff16901c91506000805160206144b283398151915282600f1663ffffffff166010811061232857612328613c89565b1a60f81b8360018151811061233f5761233f613c89565b60200101906001600160f81b031916908160001a90535060048263ffffffff16901c91506000805160206144b283398151915282600f1663ffffffff166010811061238c5761238c613c89565b1a60f81b836000815181106123a3576123a3613c89565b60200101906001600160f81b031916908160001a905350505081529392505050565b60606123cf613898565b8260285b60ff811615612438576123ea600f83166010613f71565b836123f6600184613f93565b60ff166028811061240957612409613c89565b60ff929092166020909202015260049190911c60016001609c1b0316908061243081613fb6565b9150506123d3565b5060408051610660810182526002610620820181815261018160f51b61064084015282528251808401845281815261018960f51b602082810191909152808401919091528351808501855282815261019160f51b81830152838501528351808501855282815261019960f51b818301526060840152835180850185528281526101a160f51b818301526080840152835180850185528281526101a960f51b8183015260a0840152835180850185528281526101b160f51b8183015260c0840152835180850185528281526101b960f51b8183015260e0840152835180850185528281526101c160f51b81830152610100840152835180850185529182526101c960f51b828201526101208301919091528251808401845260038082526201898160ed1b82840152610140840191909152835180850185528181526201898960ed1b81840152610160840152835180850185528181526201899160ed1b81840152610180840152835180850185528181526201899960ed1b818401526101a084015283518085018552818152620189a160ed1b818401526101c084015283518085018552818152620189a960ed1b818401526101e084015283518085018552818152620189b160ed1b8184015261020084015283518085018552818152620189b960ed1b8184015261022084015283518085018552818152620189c160ed1b8184015261024084015283518085018552818152620189c960ed1b81840152610260840152835180850185528181526201918160ed1b81840152610280840152835180850185528181526201918960ed1b818401526102a0840152835180850185528181526201919160ed1b818401526102c0840152835180850185528181526201919960ed1b818401526102e084015283518085018552818152620191a160ed1b8184015261030084015283518085018552818152620191a960ed1b8184015261032084015283518085018552818152620191b160ed1b8184015261034084015283518085018552818152620191b960ed1b8184015261036084015283518085018552818152620191c160ed1b8184015261038084015283518085018552818152620191c960ed1b818401526103a0840152835180850185528181526201998160ed1b818401526103c0840152835180850185528181526201998960ed1b818401526103e0840152835180850185528181526201999160ed1b81840152610400840152835180850185528181526201999960ed1b8184015261042084015283518085018552818152620199a160ed1b8184015261044084015283518085018552818152620199a960ed1b8184015261046084015283518085018552818152620199b160ed1b8184015261048084015283518085018552818152620199b960ed1b818401526104a084015283518085018552818152620199c160ed1b818401526104c084015283518085018552818152620199c960ed1b818401526104e0840152835180850185528181526201a18160ed1b81840152610500840152835180850185528181526201a18960ed1b81840152610520840152835180850185528181526201a19160ed1b81840152610540840152835180850185528181526201a19960ed1b81840152610560840152835180850185528181526201a1a160ed1b81840152610580840152835180850185528181526201a1a960ed1b818401526105a0840152835180850185528181526201a1b160ed1b818401526105c0840152835180850185528181526201a1b960ed1b818401526105e0840152835180850190945283526201a1c160ed1b908301526106008101919091526129756138b7565b8351829060ff166031811061298c5761298c613c89565b602002015182856001602002015160ff16603181106129ad576129ad613c89565b60200201516040860151849060ff16603181106129cc576129cc613c89565b60200201516060870151859060ff16603181106129eb576129eb613c89565b60200201516080880151869060ff1660318110612a0a57612a0a613c89565b602002015160a0890151879060ff1660318110612a2957612a29613c89565b602002015160c08a0151889060ff1660318110612a4857612a48613c89565b602002015160e08b0151899060ff1660318110612a6757612a67613c89565b6020020151604051602001612a83989796959493929190613fd3565b60408051808303601f190181529190528152610100840151829060ff1660318110612ab057612ab0613c89565b6020020151610120850151839060ff1660318110612ad057612ad0613c89565b6020020151610140860151849060ff1660318110612af057612af0613c89565b6020020151610160870151859060ff1660318110612b1057612b10613c89565b6020020151610180880151869060ff1660318110612b3057612b30613c89565b60200201516101a0890151879060ff1660318110612b5057612b50613c89565b60200201516101c08a0151889060ff1660318110612b7057612b70613c89565b60200201516101e08b0151899060ff1660318110612b9057612b90613c89565b6020020151604051602001612bac9897969594939291906140a3565b60408051808303601f190181529190526020820152610200840151829060ff1660318110612bdc57612bdc613c89565b6020020151610220850151839060ff1660318110612bfc57612bfc613c89565b6020020151610240860151849060ff1660318110612c1c57612c1c613c89565b6020020151610260870151859060ff1660318110612c3c57612c3c613c89565b6020020151610280880151869060ff1660318110612c5c57612c5c613c89565b60200201516102a0890151879060ff1660318110612c7c57612c7c613c89565b60200201516102c08a0151889060ff1660318110612c9c57612c9c613c89565b60200201516102e08b0151899060ff1660318110612cbc57612cbc613c89565b6020020151604051602001612cd89897969594939291906140a3565b60408051808303601f19018152918152820152610300840151829060ff1660318110612d0657612d06613c89565b6020020151610320850151839060ff1660318110612d2657612d26613c89565b6020020151610340860151849060ff1660318110612d4657612d46613c89565b6020020151610360870151859060ff1660318110612d6657612d66613c89565b6020020151610380880151869060ff1660318110612d8657612d86613c89565b60200201516103a0890151879060ff1660318110612da657612da6613c89565b60200201516103c08a0151889060ff1660318110612dc657612dc6613c89565b60200201516103e08b0151899060ff1660318110612de657612de6613c89565b6020020151604051602001612e029897969594939291906140a3565b60408051601f198184030181529190526060820152610400840151829060ff1660318110612e3257612e32613c89565b6020020151610420850151839060ff1660318110612e5257612e52613c89565b6020020151610440860151849060ff1660318110612e7257612e72613c89565b6020020151610460870151859060ff1660318110612e9257612e92613c89565b6020020151610480880151869060ff1660318110612eb257612eb2613c89565b60200201516104a0890151879060ff1660318110612ed257612ed2613c89565b60200201516104c08a0151889060ff1660318110612ef257612ef2613c89565b60200201516104e08b0151899060ff1660318110612f1257612f12613c89565b6020020151604051602001612f2e9897969594939291906140a3565b60408051808303601f1901815291905260808201526104808401516104c0850151839190612f5d906002614176565b612f679190613f93565b60ff1660318110612f7a57612f7a613c89565b60200201516104a08501516104e0860151849190612f99906002614176565b612fa39190613f93565b60ff1660318110612fb657612fb6613c89565b60200201518551849060ff1660318110612fd257612fd2613c89565b602002015184876001602002015160ff1660318110612ff357612ff3613c89565b602002015160405160200161300b949392919061419f565b60408051808303601f1901815291905260a08201528351829061302f906030613f93565b60ff166031811061304257613042613c89565b602002015182856001602002015160ff166031811061306357613063613c89565b60200201516040860151849061307a906030613f93565b60ff166031811061308d5761308d613c89565b60200201516060870151859060ff16603181106130ac576130ac613c89565b6020020151608088015186906130c3906030613f93565b60ff16603181106130d6576130d6613c89565b602002015160a0890151879060ff16603181106130f5576130f5613c89565b602002015160c08a0151889061310c906030613f93565b60ff166031811061311f5761311f613c89565b602002015160e08b0151899060ff166031811061313e5761313e613c89565b602002015160405160200161315a989796959493929190613fd3565b60408051808303601f1901815291905260c08201526101008401518290613182906030613f93565b60ff166031811061319557613195613c89565b6020020151610120850151839060ff16603181106131b5576131b5613c89565b602002015161014086015184906131cd906030613f93565b60ff16603181106131e0576131e0613c89565b6020020151610160870151859060ff166031811061320057613200613c89565b60200201516101808801518690613218906030613f93565b60ff166031811061322b5761322b613c89565b60200201516101a0890151879060ff166031811061324b5761324b613c89565b60200201516101c08a01518890613263906030613f93565b60ff166031811061327657613276613c89565b60200201516101e08b0151899060ff166031811061329657613296613c89565b60200201516040516020016132b29897969594939291906140a3565b60408051808303601f1901815291905260e082015261020084015182906132da906030613f93565b60ff16603181106132ed576132ed613c89565b6020020151610220850151839060ff166031811061330d5761330d613c89565b60200201516102408601518490613325906030613f93565b60ff166031811061333857613338613c89565b6020020151610260870151859060ff166031811061335857613358613c89565b60200201516102808801518690613370906030613f93565b60ff166031811061338357613383613c89565b60200201516102a0890151879060ff16603181106133a3576133a3613c89565b60200201516102c08a015188906133bb906030613f93565b60ff16603181106133ce576133ce613c89565b60200201516102e08b0151899060ff16603181106133ee576133ee613c89565b602002015160405160200161340a9897969594939291906140a3565b60408051808303601f190181529190526101008201526103008401518290613433906030613f93565b60ff166031811061344657613446613c89565b6020020151610320850151839060ff166031811061346657613466613c89565b6020020151610340860151849061347e906030613f93565b60ff166031811061349157613491613c89565b6020020151610360870151859060ff16603181106134b1576134b1613c89565b602002015161038088015186906134c9906030613f93565b60ff16603181106134dc576134dc613c89565b60200201516103a0890151879060ff16603181106134fc576134fc613c89565b60200201516103c08a01518890613514906030613f93565b60ff166031811061352757613527613c89565b60200201516103e08b0151899060ff166031811061354757613547613c89565b60200201516040516020016135639897969594939291906140a3565b60408051601f19818403018152919052610120820152610400840151829061358c906030613f93565b60ff166031811061359f5761359f613c89565b6020020151610420850151839060ff16603181106135bf576135bf613c89565b602002015161044086015184906135d7906030613f93565b60ff16603181106135ea576135ea613c89565b6020020151610460870151859060ff166031811061360a5761360a613c89565b60200201516104808801518690613622906030613f93565b60ff166031811061363557613635613c89565b60200201516104a0890151879060ff166031811061365557613655613c89565b60200201516104c08a0151889061366d906030613f93565b60ff166031811061368057613680613c89565b60200201516104e08b0151899060ff16603181106136a0576136a0613c89565b60200201516040516020016136bc9897969594939291906140a3565b60408051808303601f190181529190526101408201526104808401516104c08501518391906136ec906002614176565b6136f69190613f93565b613701906030613f93565b60ff166031811061371457613714613c89565b60200201516104a08501516104e0860151849190613733906002614176565b61373d9190613f93565b60ff166031811061375057613750613c89565b602002015185518490613764906030613f93565b60ff166031811061377757613777613c89565b602002015184876001602002015160ff166031811061379857613798613c89565b60200201516040516020016137b0949392919061420c565b60408051808303601f190181529181526101608301919091528151602080840151848401516060860151608087015160a088015160c089015197516000986137fb9897909101613e17565b60408051808303601f190181529082905260e084015161010085015161012086015161014087015161016088015194965061383b95879590602001614287565b60408051601f19818403018152919052979650505050505050565b6040518061012001604052806009905b60608152602001906001900390816138665790505090565b604080516080810190915260608152600360208201613866565b6040518061050001604052806028906020820280368337509192915050565b60408051610180810190915260608152600b60208201613866565b6001600160e01b0319811681146108e557600080fd5b6000602082840312156138fa57600080fd5b8135613905816138d2565b9392505050565b60005b8381101561392757818101518382015260200161390f565b83811115613936576000848401525b50505050565b6000815180845261395481602086016020860161390c565b601f01601f19169290920160200192915050565b602081526000613905602083018461393c565b60006020828403121561398d57600080fd5b5035919050565b6001600160a01b0391909116815260200190565b80356001600160a01b03811681146139bf57600080fd5b919050565b600080604083850312156139d757600080fd5b6139e0836139a8565b946020939093013593505050565b600060208284031215613a0057600080fd5b613905826139a8565b600080600060608486031215613a1e57600080fd5b613a27846139a8565b9250613a35602085016139a8565b9150604084013590509250925092565b60008060408385031215613a5857600080fd5b613a61836139a8565b915060208301358015158114613a7657600080fd5b809150509250929050565b634e487b7160e01b600052604160045260246000fd5b60008060008060808587031215613aad57600080fd5b613ab6856139a8565b9350613ac4602086016139a8565b92506040850135915060608501356001600160401b0380821115613ae757600080fd5b818701915087601f830112613afb57600080fd5b813581811115613b0d57613b0d613a81565b604051601f8201601f19908116603f01168101908382118183101715613b3557613b35613a81565b816040528281528a6020848701011115613b4e57600080fd5b82602086016020830137600060208483010152809550505050505092959194509250565b60008060408385031215613b8557600080fd5b613b8e836139a8565b9150613b9c602084016139a8565b90509250929050565b600181811c90821680613bb957607f821691505b60208210811415613bda57634e487b7160e01b600052602260045260246000fd5b50919050565b634e487b7160e01b600052601260045260246000fd5b634e487b7160e01b600052601160045260246000fd5b600082613c1b57613c1b613be0565b500490565b6000816000190483118215151615613c3a57613c3a613bf6565b500290565b6000600019821415613c5357613c53613bf6565b5060010190565b60008219821115613c6d57613c6d613bf6565b500190565b600081613c8157613c81613bf6565b506000190190565b634e487b7160e01b600052603260045260246000fd5b60008a51613cb1818460208f0161390c565b8a51613cc38183860160208f0161390c565b8a519184010190613cd8818360208e0161390c565b8951613cea8183850160208e0161390c565b8951929091010190613d00818360208c0161390c565b8751613d128183850160208c0161390c565b8751929091010190613d28818360208a0161390c565b8551613d3a8183850160208a0161390c565b8551929091010190613d5081836020880161390c565b019b9a5050505050505050505050565b7f646174613a6170706c69636174696f6e2f6a736f6e3b6261736536342c000000815260008251613d9881601d85016020870161390c565b91909101601d0192915050565b60008351613db781846020880161390c565b835190830190613dcb81836020880161390c565b01949350505050565b60008451613de681846020890161390c565b845190830190613dfa81836020890161390c565b8451910190613e0d81836020880161390c565b0195945050505050565b600088516020613e2a8285838e0161390c565b895191840191613e3d8184848e0161390c565b8951920191613e4f8184848d0161390c565b8851920191613e618184848c0161390c565b8751920191613e738184848b0161390c565b8651920191613e858184848a0161390c565b8551920191613e97818484890161390c565b919091019a9950505050505050505050565b6001600160a01b0385811682528416602082015260408101839052608060608201819052600090613edc9083018461393c565b9695505050505050565b600060208284031215613ef857600080fd5b8151613905816138d2565b600063ffffffff80831681851681830481118215151615613f2657613f26613bf6565b02949350505050565b600063ffffffff80841680613f4657613f46613be0565b92169190910492915050565b600063ffffffff808316818516808303821115613dcb57613dcb613bf6565b60006001600160a01b03828116848216808303821115613dcb57613dcb613bf6565b600060ff821660ff841680821015613fad57613fad613bf6565b90039392505050565b600060ff821680613fc957613fc9613bf6565b6000190192915050565b604d60f81b8152600089516020613ff08260018601838f0161390c565b8a51918401916140068160018501848f0161390c565b808301925050604360f81b600183015260028a5161402981838601858f0161390c565b8a5193019261403d81838601858e0161390c565b895193019261405181838601858d0161390c565b885193019261406581838601858c0161390c565b875193019261407981838601858b0161390c565b865193019261408d81838601858a0161390c565b929092019091019b9a5050505050505050505050565b605360f81b81526000895160206140c08260018601838f0161390c565b8a51918401916140d68160018501848f0161390c565b8a519201916140eb8160018501848e0161390c565b89519201916141008160018501848d0161390c565b605360f81b6001939091019283015287516141218160028501848c0161390c565b87519201916141368160028501848b0161390c565b865192019161414b8160028501848a0161390c565b8551920191614160816002850184890161390c565b919091016002019b9a5050505050505050505050565b600060ff821660ff84168160ff048111821515161561419757614197613bf6565b029392505050565b605160f81b8152600085516141bb816001850160208a0161390c565b8551908301906141d2816001840160208a0161390c565b85519101906141e881600184016020890161390c565b84519101906141fe81600184016020880161390c565b016001019695505050505050565b605160f81b815260008551614228816001850160208a0161390c565b85519083019061423f816001840160208a0161390c565b855191019061425581600184016020890161390c565b845191019061426b81600184016020880161390c565b603d60f91b600192909101918201526002019695505050505050565b60008751602061429a8285838d0161390c565b8851918401916142ad8184848d0161390c565b88519201916142bf8184848c0161390c565b87519201916142d18184848b0161390c565b86519201916142e38184848a0161390c565b85519201916142f5818484890161390c565b91909101999850505050505050505056fe3c73766720786d6c6e733d22687474703a2f2f7777772e77332e6f72672f323030302f737667222076696577426f783d22382038203332203332222077696474683d2232303022206865696768743d22323030223e3c72616469616c4772616469656e742069643d2222206f66667365743d222e35223e3c2f73746f703e3c73746f702073746f702d636f6c6f723d222322206f66667365743d2231223e3c2f73746f703e3c2f72616469616c4772616469656e743e3c7265637420783d22382220793d2238222077696474683d223130302522206865696768743d223130302522206f7061636974793d2231222066696c6c3d227768697465223e3c2f726563743e3c7265637420783d22382220793d2238222077696474683d223130302522206865696768743d223130302522206f7061636974793d222e35222066696c6c3d2275726c28232922207374726f6b652d77696474683d22302e3122207374726f6b653d2275726c28234142434445464748494a4b4c4d4e4f505152535455565758595a6162636465666768696a6b6c6d6e6f707172737475767778797a303132333435363738392b2f3031323334353637383961626364656600000000000000000000000000000000ddf252ad1be2c89b69c2b068fc378daa952ba7f163c4a11628f55a4df523b3ef22206f66667365743d2231223e3c2f73746f703e3c2f6c696e6561724772616469656e743e3c6c696e6561724772616469656e742069643d2222206f66667365743d2230223e3c2f73746f703e3c73746f702073746f702d636f6c6f723d2223222c226465736372697074696f6e223a2257616c6c65742053564720526570726573656e746174696f6e222c22696d616765223a2022646174613a696d6167652f7376672b786d6c3b6261736536342c22206f66667365743d2231223e3c2f73746f703e3c2f6c696e6561724772616469656e743e3c706174682066696c6c3d2275726c2823a2646970667358221220ce71267fdf74ab7b8ab27fd159ce2ea68200987573e7e9a14a93ae354f71cfd264736f6c634300080c0033",
  "linkReferences": {},
  "deployedLinkReferences": {}
}